:020000040000FA
:100000000A128A110C280234FE00030EF4000A08BA
:10001000F5000A168A11D62C0A128A110F288313AA
:10002000E330FD001430FE007230FF00D230840057
:100030000A168A1199240A128A115A30FD001430C6
:10004000FE008330FF00483084000A168A1199248C
:100050000A128A110A128A1103200A128A11FB005D
:10006000831790308400CE300A168A1100240A12B9
:100070008A1183160313E301E40183135A308400C9
:1000800062300A168A1100240A128A11F601F70159
:10009000F801F901FA0183010A128A1182298312F7
:1000A0000313AE01B101B201B0015808A90029083B
:1000B000AF00A30100300A168A11A8240A128A117F
:1000C0006128831203132E080319672868287528EE
:1000D00020300A168A1125270A128A11013083124C
:1000E0000313A9002908B0077A292F08903E84003D
:1000F00083170008A9002908B1000130A9002908C8
:10010000AF073108031D852886288928AE01AE0A6D
:100110007A29B11F8C288D28552931087F39A900EB
:100120002908B20064303202031C97289828CE2890
:1001300031300A168A1125270A128A1101308312DA
:100140000313A9002908B0076430A0000030A10003
:100150003208A900AA012908A2002A08A3000A124D
:100160008A1171250A128A11831203132008AB0029
:100170002B08B2000A3032020318BF28C028CE284C
:1001800030300A168A1125270A128A11013083128B
:100190000313A9002908B007CE28CE280A3032025E
:1001A000031CD328D4280A290A30A0000030A1005B
:1001B0003208A900AA012908A2002A08A3000A12ED
:1001C0008A1192240A128A11831203132008303EE6
:1001D0000A168A1125270A128A1101308312031385
:1001E000A9002908B0070A30A0000030A100320899
:1001F000A900AA012908A2002A08A3000A128A114C
:1002000071250A128A11831203132008AB002B08F0
:10021000B2000A293208303E0A168A1125270A122E
:100220008A11013083120313A9002908B007733023
:100230000A168A1125270A128A1101308312031324
:10024000A9002908B0077A2955292C292C292C29FD
:100250002C292C292C292C293108DF390A168A113E
:1002600025270A128A11013083120313A9002908D5
:10027000B007B11A3C293D2942292B30AC0000308F
:10028000AD0047292D30AC000030AD0047292C08C7
:100290000A168A1125270A128A11013083120313C4
:1002A000A9002908B0077A297A293108A900AA01EA
:1002B0002A08003A03195D297A292908413A0319C5
:1002C0002C29033A03192C29013A03192C29073A3E
:1002D00003192C29253A03192C29033A03192C292F
:1002E000013A03192C29073A03192C297A297A296A
:1002F0007A297A2911303002031C7F29802961284C
:10030000812908000A168A11C5260A128A110A16BE
:100310008A11F8230A128A110A168A1161240A1214
:100320008A1183160313D101D001A0308400D2308A
:1003300083120313C4000408C5001130C60044082A
:10034000840083130008C700C40A450884004708D6
:100350008000C50AC60B9F2983160313B1016408E8
:1003600083120313C400440883160313C8006308F0
:1003700083120313C400440883160313CE00CE3047
:1003800083120313C4004408A000A101A10AC830CD
:100390000A168A1156270A128A11FF308312031394
:1003A000C400440883160313C900C7010230831236
:1003B0000313C400440883160313B200CA01CB011F
:1003C000CC01CD01CF01B301B401B501B601B70134
:1003D000B801EA290A128A15212E83160313C301D4
:1003E00002304302031CF529F629F8293C2A3C2A4D
:1003F000C40110304402031CFE29FF29012A2D2AC2
:100400002D2A440883120313C4004408A6000330B5
:10041000A7009130A8008316031343080A128A111B
:1004200083270A128A110A3083120313A0000030B6
:10043000A1000A168A1113250A128A1101308312AB
:100440000313C400440883160313C4071030440286
:10045000031C2B2A2C2A012A2D2A01308312031374
:10046000C400440883160313C30702304302031C6D
:100470003A2A3B2AF8293C2AC50102304502031CCE
:10048000422A432A452A882A882AC6011030460271
:10049000031C4B2A4C2A4E2A7A2A7A2A46088312AF
:1004A0000313C4004408A6000F30A7009030A80032
:1004B0008316031345080A128A1183270A128A1128
:1004C0000A3083120313A0000030A1000A168A111B
:1004D00013250A128A11013083120313C400440841
:1004E00083160313C60710304602031C782A792AA4
:1004F0004E2A7A2A013083120313C400440883165B
:100500000313C50702304502031C872A882A452A9F
:10051000D001D00A0A128A15742E83120313B40074
:10052000AF1B932A952A0130962A0030B10031087A
:10053000B600360803199D2A9E2AA42AAE09AF09DF
:10054000AE0A0319AF0AA42A2D08B1003108A3008E
:1005500034080A168A11A8240A128A11103083124C
:100560000313B7002730B8000530B1003108B500DB
:10057000E82A831203133808A1003708A0002F08C7
:10058000A3002E08A2000A128A1192240A128A11CC
:100590008312031320082104031DCF2AD02A022B23
:1005A0000130B502D42A022B0A30A0000030A1008D
:1005B0003808A3003708A2000A128A1192240A12EE
:1005C0008A11831203132108B8002008B700E82A13
:1005D0003808803AFF0080307F02031DF12A013085
:1005E00037020318F42AF52AB92A022B022B2030ED
:1005F0000A168A1125270A128A1101308312031361
:10060000B002022B8312031335083607B100B20182
:10061000B20D3208803AB30080303302031D122B32
:10062000300831020318152B162B202B02308312B1
:100630000313300203181D2B1E2BF72A202B202B0F
:100640008312031336080319262B272B2E2B2D304C
:100650000A168A1125270A128A112E2B83120313D8
:100660003808A1003708A0002F08A3002E08A20018
:100670000A128A1192240A128A1183120313200883
:10068000303E0A168A1125270A128A118312031393
:100690003808A1003708A0002F08A3002E08A200E8
:1006A0000A128A1171250A128A1183120313210872
:1006B000AF002008AE000A30A0000030A1003808CA
:1006C000A3003708A2000A128A1192240A128A1182
:1006D000831203132108B8002008B7003808803AB5
:1006E000FF0080307F02031D772B01303702031893
:1006F0007A2B7B2B2E2B7C2B080083120313C2003A
:1007000039080A168A11BD240A128A1183120313AA
:10071000BA003A08C300C31F8E2B8F2BD42B7F3017
:10072000BA003A08C3054308BA00BB013A08A90059
:100730003B08AA000A168A117A250A128A11033A7E
:10074000031DA32BA42BA92B013083120313C20278
:10075000A92B831203134208BA003A08AD004308DC
:10076000BB00BC013B08AE003C08AF004308BD0025
:10077000BE013D08A9003E08AA000A168A117A2582
:100780000A128A1183120313BF003F08B000003021
:100790000A128A118D220A128A1173300A168A11DE
:1007A00025270A128A110D2C4130831203134302AC
:1007B000031CDB2BDC2B0D2C7B3043020318E12BBD
:1007C000E22B0D2C4208BA003A08A30000300A16AA
:1007D0008A11A8240A128A11831203134308DF39ED
:1007E0000A168A1125270A128A1183120313C31AC3
:1007F000FA2BFB2B002C2B30C0000030C100052C45
:100800002D30C0000030C100052C40080A168A11A6
:1008100025270A128A110D2C0D2C080083120313B0
:10082000A20006122208A00004300310A00CFF3E14
:10083000031D152C06082006F039200686008612B6
:1008400022030319242C252C2C2C02302206031DF4
:100850002A2C2B2C372C2C2C0D3083120313A100A7
:10086000FB30A000A00B322CA10B322C3F2C4130CE
:1008700083120313A000A00B3B2C3E2C3F2C8312B1
:1008800003138616F0302205A00020302006031D39
:100890004A2C4B2C652C06122208A00004300310B1
:1008A000A00CFF3E031D4F2C06082006F039200641
:1008B00086008612413083120313A000A00B5E2C29
:1008C000612C831203138616652C06120F30220545
:1008D000A00006082006F0392006860086122203B2
:1008E0000319732C742C7B2C02302206031D792CE7
:1008F0007A2C862C7B2C0D3083120313A100FB3045
:10090000A000A00B812CA10B812C8E2C41308312D6
:100910000313A000A00B8A2C8D2C8E2C83120313A2
:100920008616080083120313A601A11F982C992C88
:10093000A12CA009A109A00A0319A10AA601A60ACF
:10094000A12CA31FA42CA52CAF2CA209A309A20A99
:100950000319A30A0130A4002408A606AF2CA7019E
:10096000A801200821040319B62CB72CF42CA501EA
:10097000A50AC62C01300310A00DA10DFF3E031DDA
:10098000BB2C0130A4002408A507C62CA11FC92C2C
:10099000CA2CBA2CCC2CCC2C01300310A70DA80DDE
:1009A000FF3E031DCD2C21082302031DD92C200856
:1009B0002202031CDC2CDD2CE52C2008A2022108DD
:1009C000031CA303A3022714E52C01300310A10C80
:1009D000A00CFF3E031DE62C0130A502031DF12CE7
:1009E000F22CCC2CF42CF42C26080319F82CF92C1E
:1009F000FF2CA709A809A70A0319A80AFF2C280891
:100A0000A1002708A000042D080083120313A300EF
:100A10004E2D20088400831300080239702D702D9C
:100A2000702D20088400831300080139702D702D6B
:100A3000702D20088400831300080839702D702D54
:100A4000702D20088400831300080439702D702D48
:100A5000702D20088400831300082039702D702D1C
:100A6000702D20088400831300081039702D702D1C
:100A7000702D20088400831300088039702D702D9C
:100A8000702D20088400831300084039702D702DCC
:100A9000702D0030702D702D702D702D2308A10049
:100AA000A2012208003A0319562D492D2108413A86
:100AB0000319092D033A0319192D013A0319292D98
:100AC000073A0319392D253A0319112D033A031951
:100AD000212D013A0319312D073A0319412D492DD2
:100AE000080083120313A601A31F772D782D802DF4
:100AF000A209A309A20A0319A30AA601A60A802D26
:100B0000A11F832D842D8A2DA009A109A00A0319F4
:100B1000A10A8A2D2008210403198F2D902DC52D9F
:100B2000A501A50A9F2D01300310A00DA10DFF3EC8
:100B3000031D942D0130A4002408A5079F2DA11F9B
:100B4000A22DA32D932DA52DA52D21082302031D34
:100B5000AB2D20082202031CAE2DAF2DB62D200890
:100B6000A2022108031CA303A302B62D0130031027
:100B7000A10CA00CFF3E031DB72D0130A502031DE3
:100B8000C22DC32DA52DC52DC52D26080319C92D90
:100B9000CA2DD02DA209A309A20A0319A30AD02D98
:100BA0002308A1002208A000D52D080083120313FA
:100BB000A401A50104302502031CDF2DE02DE22D48
:100BC000312E312E0130A000250AE82D0310A00D92
:100BD000FF3E031DE62D20088800A60104302602F2
:100BE000031CF32DF42DF62D262E262E1030A000FA
:100BF000260AFC2D0310A00DFF3E031DFA2D200830
:100C000008050319042E052E1B2E2508A00002300E
:100C10000310A00DFF3E031D082E48302007A10041
:100C200026082107A2002208840083130008A300DD
:100C30002308A4001B2E0130A0002008A6070430C2
:100C40002602031C242E252EF62D262E0130A00070
:100C50002008A50704302502031C2F2E302EE22D7C
:100C6000312E2408332E080083120313A3006D2EA7
:100C700020088400831300148F2EFE30A10020086A
:100C800084002108831380058F2E2008840083139D
:100C900080148F2EFD30A1002008840021088313CA
:100CA00080058F2E20088400831300158F2EFB30C3
:100CB000A100200884002108831380058F2E2008BE
:100CC0008400831380158F2EF730A1002008840044
:100CD0002108831380058F2E8F2E2308A100A201E7
:100CE0002208003A0319752E8F2E2108413A031964
:100CF000382E033A0319452E013A0319522E073AAA
:100D000003195F2E253A03193D2E033A03194A2E83
:100D1000013A0319572E073A0319642E8F2E080043
:100D200083120313B0015908FF3EAD002D08B20035
:100D30000230320203189D2E9E2EA02EE92EE92E9F
:100D40003208903E840083170008AD002D08B100E2
:100D5000B11FAB2EAC2EC02E31087F39AD00AE01D5
:100D60002D08A9002E08AA000A168A117A250A124F
:100D70008A11013E83120313AF002F08B007D22E51
:100D800041303102031CC52EC62ED22E7B303102DB
:100D90000318CB2ECC2ED22E0230AD002D08B0077A
:100DA000D22ED22E11303002031CD72ED82EDB2E9D
:100DB000E92EE92EE02E3208AD002D08D800E02EF5
:100DC0000130B202023032020318E72EE82EA02EC4
:100DD000E92E080083120313A601A70120082104AD
:100DE0000319F32EF42E312FA501A50A032F01308C
:100DF0000310A00DA10DFF3E031DF82E0130A4002D
:100E00002408A507032FA11F062F072FF72E092F50
:100E1000092F01300310A60DA70DFF3E031D0A2F59
:100E200021082302031D162F20082202031C192F5C
:100E30001A2F222F2008A2022108031CA303A302B9
:100E40002614222F01300310A10CA00CFF3E031D1D
:100E5000232F0130A502031D2E2F2F2F092F312FF5
:100E6000312F2708A1002608A000362F08000030E7
:100E700083120313AC000030AB000030AA00003036
:100E8000A900422F201C452F462F5E2F2408A907BA
:100E9000250803110318013E03194F2FAA0726083E
:100EA00003110318013E0319562FAB07270803113E
:100EB0000318013E03195D2FAC075E2F0130A80017
:100EC0000310A40DA50DA60DA70DA80B602F0130D2
:100ED0000310A30CA20CA10CA00CFF3E031D682F55
:100EE0002308220421042004031D772F782F422F8A
:100EF000792F2C08A3002B08A2002A08A10029089A
:100F0000A000822F080083120313AB002608A9005B
:100F10002908AA002608A9002908A3002B080A16F8
:100F20008A11A8240A128A11B02F831203132808E9
:100F3000FF00270884000A168A1105210A128A1167
:100F40000A168A1125270A128A1101308312031307
:100F5000A7070318A80A0130A9002908AA07B02F7B
:100F6000831203132808FF00270884000A168A1139
:100F700005210A128A11003A031DBF2FC02F952F99
:100F8000C12F0800831203135E08FF3EA40024084B
:100F9000A7000A168A11D6230A128A118312031394
:100FA000A801F02F2803FF3A27075F07A4002408B1
:100FB0008400831300080A168A1116260A128A1161
:100FC00083120313A50028086007A60026088400E2
:100FD0002508831380000130A4002408A807F02FFF
:100FE0005E082802031CF52FF62FD22FF72F0A16C2
:100FF0008A11D6230A128A110800F601F7010800A7
:1010020002308312C4004408A600EE30A7009030DC
:10101200A80000300A128A1183270A128A150030AA
:1010220083120313B0000030AF000330AE00E8308B
:10103200AD000A168A112A240A128A150230831276
:101042000313C400440883160313D000742E0A1637
:101052008A1136240A128A158312031323082204E2
:1010620021042004031D36283728742E0330C400BF
:10107200440883160313D000742E742E0A168A11A4
:10108200E2230A128A1583120313A6019930A700DC
:101092009030A80000300A128A1183270A128A159A
:1010A20083120313A6016630A7009030A800013016
:1010B2000A128A1183270A128A1500308312031337
:1010C200B0000030AF000330AE00E830AD000A16C9
:1010D2008A112A240A128A15043083120313C400C7
:1010E200440883160313D000742E0A168A1136247C
:1010F2000A128A15831203132308220421042004EE
:10110200031D84288528742E0530C40044088316E4
:101112000313D000742E742E0A168A11D1230A12D8
:101122008A15063083120313C4004408831603137E
:10113200D000742E0A168A11E2230A128A1583122B
:101142000313A6017730A7009030A80000300A12DE
:101152008A1183270A128A15073083120313C400E7
:10116200440883160313D000742E0A168A113225FE
:101172000A128A1583120313C40044088316031348
:10118200D1009D298316031351080A168A11C62716
:101192000A128A15043083120313C4004408A30000
:1011A20000300A168A11A8240A128A1541300A163A
:1011B2008A118D270A128A15003A031DE128E228B6
:1011C200E9282D3083160313B9000030BA00F02845
:1011D2002B3083160313B9000030BA00F028390807
:1011E2000A168A1125270A128A15742E83160313EA
:1011F20051080A168A11C6270A128A150730831265
:101202000313C4004408A30000300A168A11A8245C
:101212000A128A1542300A168A118D270A128A1575
:10122200003A031D152916291D292D308316031393
:10123200BB000030BC0024292B3083160313BB00F3
:101242000030BC0024293B080A168A1125270A12FD
:101252008A15742E8316031351080A168A11C6279B
:101262000A128A150A3083120313C4004408A30029
:1012720000300A168A11A8240A128A1543300A1667
:101282008A118D270A128A15003A031D49294A2913
:1012920051292D3083160313BD000030BE0058299A
:1012A2002B3083160313BD000030BE0058293D08C1
:1012B2000A168A1125270A128A15742E8316031319
:1012C20051080A168A11C6270A128A150D3083128E
:1012D2000313C4004408A30000300A168A11A8248C
:1012E2000A128A1544300A168A118D270A128A15A3
:1012F200003A031D7D297E2985292D30831603138B
:10130200BF000030C0008C292B3083160313BF00AE
:101312000030C0008C293F080A168A1125270A12BC
:101322008A15742E0A3083120313C40044088316EC
:101332000313D000742E742E510883120313C400B9
:10134200C5014508003A0319A729742E4408233A17
:1013520003199329623A0319C328033A0319F72898
:10136200013A03192B29073A03195F29742E742EA7
:101372000A168A11E2230A128A1583120313A6019E
:10138200DD30A7009030A80000300A128A118327AE
:101392000A128A150E3083120313C40044088316FE
:1013A2000313D000742E0A168A1132250A128A15E6
:1013B20083120313C400440883160313D100682A5E
:1013C200E429E429E4290A168A1112240A128A1548
:1013D200003A0319ED29EE29742E831603135108DE
:1013E2000A168A11C6270A128A1583160313510890
:1013F2000A168A118D270A128A15003A031D022A3B
:10140200032A0B2A2030831603135104C100003033
:10141200C2001D2A83160313510883120313C4004A
:10142200C501440883160313C10083120313450840
:1014320083160313C2001D2A41080A168A11A02529
:101442000A128A15103083120313C400440883164B
:101452000313D000742E742E0A168A11F5260A126E
:101462008A15103083120313C40044088316031331
:10147200D000742E0A168A111E240A128A15103000
:1014820083120313C400440883160313D000742E7E
:101492000A168A11ED250A128A15103083120313D7
:1014A200C400440883160313D000742E353083120F
:1014B200C400440883160313D000742E293083120B
:1014C200C400440883160313D000742E742E5108EE
:1014D20083120313C400C5014508003A0319722A96
:1014E200742E4408233A0319572A093A0319492A40
:1014F2001A3A03195F2A043A03193B2A023A0319DA
:101502002D2A773A0319E429033A0319E429013A07
:101512000319E429073A0319E429742E742E0A12D6
:101522008A114F200A128A150E3083120313C40047
:10153200440883160313D000742E8312A601FB30D5
:10154200A7009030A80001300A128A1183270A12DC
:101552008A1583120313AD01AD0A0A168A11CC2330
:101562000A128A15FE3E83120313AE00FF300318DF
:101572000030AF000230C4004408B00001300A124B
:101582008A118D220A128A15043083120313C400B1
:101592004408AD000A168A11C6230A128A15FE3EB5
:1015A20083120313AE00FF3003180030AF00023085
:1015B200C5004508B00001300A128A118D220A12B4
:1015C2008A150B3083120313C400440883160313D5
:1015D200D000742E46308312C400440883160313CD
:1015E200D000C901C90A742E0330831603134906B9
:1015F200031DFC2AFD2A942B02304F060319022BED
:10160200032B942B83120313A6013330A7009030CF
:10161200A80000300A128A1183270A128A15FF30A5
:1016220083120313C4004408B90001300A128A115C
:101632007D230A128A1583120313B90107300A1295
:101642008A117D230A128A1583120313B901B90A7A
:101652000C300A128A117D230A128A15831203138F
:10166200A6012230A7009030A80001300A128A1188
:1016720083270A128A15043083120313C400440814
:10168200AD000A168A11CC230A128A15FE3E831275
:101692000313AE00FF3003180030AF000230C50064
:1016A2004508B00001300A128A118D220A128A15E9
:1016B20083120313AD01AD0A0A168A11C9230A1255
:1016C2008A15FF3E83120313AE00FF300318003069
:1016D200AF000230C4004408B00001300A128A117F
:1016E2008D220A128A150B3083120313C400440898
:1016F200AD000A168A11F0230A128A158312031307
:101702002008013EAE0021080318013E003EAF0052
:101712000530C5004508B00001300A128A118D2239
:101722000A128A15942B831603134908031D9A2B58
:101732009B2BA92B103083120313C4004408831679
:101742000313D0000A168A11E2230A128A15A92B62
:101752000A168A1132250A128A1583120313C4004B
:10176200440883160313D100DA2B83160313CF0127
:10177200CF0A742E02308312C40044088316031366
:10178200CF00742E83160313CF01742E02308316FA
:1017920003134F06031DCE2BCF2B742E033083125F
:1017A2000313C400440883160313CF00742E742E4F
:1017B200742E510883120313C400C5014508003A70
:1017C2000319E42B742E4408233A0319B62B133A57
:1017D2000319C32B013A0319C72B043A0319BB2B74
:1017E200742E742E0A168A1132250A128A15831251
:1017F2000313C400440883160313D100303051028E
:10180200031C042C052C312C3A30510203180A2CEB
:101812000B2C312CCA3083120313C4004408A600D7
:101822008316031351080A168A1197260A128A157B
:101832000030831603134B02793003194A02031C4A
:10184200232C242C282C7830CA000030CB002930DD
:1018520083120313C400440883160313D000312CEF
:101862002A305106031D362C372C462CCA300A1654
:101872008A11F4240A128A15293083120313C40030
:10188200440883160313D000462C23305106031D4F
:101892004B2C4C2C742E2A3083120313C4004408A0
:1018A20083160313D000742E742E8312A601CC303B
:1018B200A7009030A80001300A128A1183270A1269
:1018C2008A150B3083120313C4004408AD0083163B
:1018D20003134B0883120313AF00831603134A0842
:1018E20083120313AE000330C5004508B000013077
:1018F2000A128A118D220A128A15283083120313C2
:10190200C400440883160313D000742E83160313F5
:101912004A080A168A11C6250A128A150A168A1157
:10192200E2230A128A15103083120313C4004408FA
:1019320083160313D000742E0A168A11E2230A12A8
:101942008A1583120313A6014430A7009030A80021
:1019520000300A128A1183270A128A15831203138E
:10196200A6015530A7009030A80001300A128A1152
:1019720083270A128A15003083120313B000003045
:10198200AF000730AE00D030AD000A168A112A240B
:101992000A128A15333083120313C40044088316D3
:1019A2000313D000742E0A168A1136240A128A15DD
:1019B200831203132308220421042004031DE22CB2
:1019C200E32C742E0A168A11E2230A128A15831254
:1019D2000313A601AA30A7009030A80000300A1213
:1019E2008A1183270A128A1583120313A6018830EB
:1019F200A7009030A80001300A128A1183270A1228
:101A02008A15003083120313B0000030AF00073094
:101A1200AE00D030AD000A168A112A240A128A15A5
:101A2200343083120313C400440883160313D00016
:101A3200742E742E0A168A1136240A128A158312FB
:101A420003132308220421042004031D292D2A2D17
:101A5200742E0A168A11E2230A128A15353083126D
:101A62000313C400440883160313D000742E742E8B
:101A72000A168A1132250A128A1583120313C40028
:101A8200440883160313D10030305102031C4A2D3F
:101A92004B2DA82D3A3051020318502D512DA82D4F
:101AA200CC3083120313C4004408A6008316031328
:101AB20051080A168A1197260A128A1527308316A8
:101AC20003134D02113003194C02031C692D6A2DB8
:101AD2006E2D1030CC002730CD0035308312031329
:101AE200C400440883160313D000742EA82D7B2D46
:101AF2007B2D7B2D8312A6010030A7009030A80019
:101B020001300A128A1183270A128A1510308312B1
:101B12000313C400440883160313D000742E363016
:101B22008312C400440883160313D000742ECC30F1
:101B32000A168A11F4240A128A1535308312031305
:101B4200C400440883160313D000742E742E510867
:101B520083120313C400C5014508003A0319B22DCC
:101B6200742E4408233A0319902D093A0319982D2B
:101B72006B3A03197B2D033A03197B2D013A0319A2
:101B82007B2D073A03197B2D742E742EA60111307A
:101B9200A7009030A80000300A128A1183270A1287
:101BA2008A15083083120313C4004408AD0083165B
:101BB20003134D0883120313AF00831603134C085B
:101BC20083120313AE000530C5004508B000003093
:101BD2000A128A118D220A128A1583120313A60190
:101BE200BB30A7009030A80001300A128A11832767
:101BF2000A128A15343083120313C4004408831670
:101C02000313D000742E831603134D08831203139B
:101C1200A100831603134C0883120313A0000A16B3
:101C22008A1150240A128A151E3083120313C4002B
:101C3200440883160313D000CF01CF0A742E742EEA
:101C420083160313500883120313C400C501450809
:101C5200003A03192D2E742E4408003A0319FD2F61
:101C6200013A03190128033A03192828013A0319F2
:101C72003F28073A03197628013A03198D28033AB7
:101C820003199B28013A0319B6280D3A0319B929F9
:101C9200013A0319D429053A03199E2A1E3A031957
:101CA200902A0E3A0319EB2A363A0319F32B013A1A
:101CB2000319562C033A0319872C183A03199D2C41
:101CC200013A0319D42C073A0319392D013A0319A1
:101CD200C72D033A0319042E013A03191B2D713A39
:101CE2000319F52A742E0A128A11C2270A128A15BA
:101CF200CF2F212E0A168A11E9230A128A150A12F7
:101D02008A11FD270A128A15023083120313C400B6
:101D1200440883160313C900212E0A168A11C92307
:101D22000A128A150A168A1108240A128A158312BF
:101D32000313C400440883160313C7004F03031997
:101D4200A32EA42EB02E03304F060319A92EAA2EBD
:101D5200B02E4F08031DAE2EAF2E212EB02E033013
:101D620083120313C400440883160313C900212EEF
:101D7200212E83160313C71FBF2EC02EF52E470830
:101D82007F3983120313C400C501C601C701470886
:101D9200A3004608A2004508A1004408A0000030A4
:101DA200A7000030A6000330A500E830A4000A1204
:101DB2008A1137270A128A15831203132308B000E7
:101DC2002208AF002108AE002008AD000A168A11D1
:101DD2002A240A128A15043083120313C400440809
:101DE20083160313C900212ECE3083120313C400BD
:101DF2004408A0008316031347080A128A113426E6
:101E02000A128A15053083120313C400440883168C
:101E12000313C900212E212E0A168A1136240A1212
:101E22008A15831203132308220421042004031DAC
:101E32001B2F1C2F212E0630C400440883160313C7
:101E4200C900212E212EC8308312C4004408A000EC
:101E52008316031347080A128A1105250A128A15E6
:101E6200003A0319352F362F212E06308312031321
:101E7200C400440883160313C900212E212E033007
:101E8200831603134F06031D472F482F502F02308E
:101E920083120313C400440883160313CF000730D0
:101EA20083120313C400440883160313C900212EAE
:101EB2000A168A1142240A128A150A168A11CC239A
:101EC2000A128A1583120313C4000A168A11C9233F
:101ED2000A128A1583120313C50044084502031827
:101EE200732F742F7B2F0230C40044088316031310
:101EF200C900212E0A168A11DB230A128A1508301C
:101F020083120313C400440883160313C900212E4D
:101F1200212E831603134F080319902F912FC92FD7
:101F22000A168A11F0230A128A1583120313200853
:101F3200C4002108C5000A168A1155250A128A15FD
:101F42008312031321084502031DA92F200844020E
:101F5200031CAC2FAD2FBB2F0A168A1155250A126E
:101F62008A158312031320082104031DB92FBA2FE7
:101F7200C92FBB2F0A168A11E9230A128A150230C9
:101F820083120313C400440883160313C900212ECD
:101F920083160313C901212E212E212E831603132A
:101FA200490883120313C400C5014508003A031906
:101FB200DB2F212E4408003A0319212E013A03197E
:101FC2007B2E033A03198E2E013A0319BA2E073AD1
:101FD20003190D2F013A0319242F033A0319402F35
:101FE200013A0319592F0F3A03198A2F212E212E54
:101FF200212E0A128A110C280A128A11ED29203484
:10200200203420342034203420342034203420342E
:10201200203420342034203420342034203400343E
:102022004334693463346C346F3473343A34203457
:1020320020342034203420342034203420342034FE
:1020420000343C34203420342F34203420343E34C5
:10205200203463343A342034203420342034203481
:1020620020340034203420342034203420345B34B3
:1020720020342034203420345D3420342034203481
:10208200203420340034203420342034203454349A
:1020920065346C3461342034643465342034203443
:1020A200203420342034003420342034203452347C
:1020B20065347034653474346934633461346F3434
:1020C200203420342034203400342034203420348E
:1020D20064346F3420347334693473347434653443
:1020E2006D346134203420342034003420342034E0
:1020F200203441342D34203442342D3420344334BE
:102102002D34203444342D3420342034003420340F
:102112006434653420347234653470346534743414
:10212200693463346F3465347334203420340034BA
:1021320041346A34753473347434653420346F3402
:10214200203469346E346934633469346F34203432
:102152000034443469346734693474346534203467
:102162006F3420346E3475346D34653472346F34A8
:102172002034003430342D344334693463346C34C5
:102182006F34203463346F346E34743469346E3493
:1021920075346F34003463346634673420347434F5
:1021A20065346D3470346F343A3420342034203442
:1021B200203420347334003449346E347334693437
:1021C2007234613420346F347334203470346134A7
:1021D200733473346F3473340034503449344334B9
:1021E2006F346E34743472346F346C346C346534DE
:1021F200723400343C34203420342F3420342034E0
:102202003E340034FF340034FF1B0F2983137F1840
:1022120083170008840A0319FF0A08007F087F3920
:0C2222008A000408840A0319FF0A8200E5
:10278C003E30C82B08007B08CB2B080083120313A8
:10279C005908D02B08007A10FA107A11FA11080097
:1027AC00831203138511851508000130F6070318F1
:1027BC00F70A0030F707080001300A128A110E24BC
:1027CC000A168A110800023083120313A000200895
:1027DC00FB000800770883120313A1007608A00001
:1027EC00F72B0800831203138801F03083160313B0
:1027FC008800080064008001840A04060319003470
:10280C000406012C83120313A0002008903E8400C0
:10281C0083170008112C08003E3083120313590251
:10282C00031C192C1B2C01301C2C00301D2C0800F7
:10283C000330831203135802031C252C262C292C3D
:10284C000130D802292C0800831203133008DD0054
:10285C002F08DC002E08DB002D08DA00101408000D
:10286C00831203135D08A3005C08A2005B08A1009F
:10287C005A08A000412C08008312031359087B024C
:10288C000318492C4A2C4F2C0130A0002008FB07C0
:10289C004F2C0800831203132008A2002208831671
:1028AC0003179000831203132108A2002208831639
:1028BC00031791000800831203139010303090041A
:1028CC001015FD308F008F308E00101383160313FC
:1028DC000C140B178B1708002034203420342034B0
:1028EC00203420342034203420342034203420343C
:1028FC002034203420342034003431343234333416
:10290C004134343435343634423437343834393451
:10291C0043342A34303423344434023402347E08B1
:10292C008A007F0882000A168A1195240A168A11D9
:10293C008000840A04087D0603190034FF0A031979
:10294C00FE0A992C83120313A5002508A400063057
:10295C000310A40DFF3E031DAE2C230824077F3962
:10296C00803E0A128A110E240A168A11080083125C
:10297C000313A200A3010A168A11C9230A168A118D
:10298C008312031322070A168A1108240A168A11C5
:10299C0083120313A1002108A3002308D52C0800DF
:1029AC008B13831203130C1CDC2CDD2CEC2C8316E8
:1029BC0003130C1CE22CE32CEC2C831203130C10D1
:1029CC000A168A1169260A168A11EC2C8B177508BF
:1029DC008A00740E8300FE0E7E0E09008312031310
:1029EC00A8000A30A0000030A1002808840083133E
:1029FC000008A200840A0008A3000A128A11EA2621
:102A0C000A168A11831203132808840020088313E2
:102A1C008000840A210880000800282D07308312CA
:102A2C000313A3007C30A200A20B1A2DA30B1A2DAA
:102A3C000000013083120313A0020030031CA10319
:102A4C00A102282D8312031320082104031D2F2D0E
:102A5C00302D142D312D080083120313A901A80168
:102A6C000A128A11D6250A168A1183120313A7009B
:102A7C002708A90029080319442D452D4E2D61085E
:102A8C00031D492D4A2D4E2D2908A7002708A80003
:102A9C002908A7002708E1002808542D08008316F0
:102AAC000317110883120313A200A3012208A40028
:102ABC002308A50008300310A40DA50DFF3E031D2F
:102ACC00612D83160317100883120313A200A301B0
:102ADC002208A4070318A50A2308A5072508A100A6
:102AEC002408A000792D080083120313AC01962D45
:102AFC000A30A0000030A1002A08A3002908A20077
:102B0C000A128A1192240A168A11831203132108BD
:102B1C00AA002008A9000130AB002B08AC07962DA9
:102B2C0029082A04031D9B2D9C2D7E2D9D2D2C08E0
:102B3C009F2D080083120313B4003E305902031872
:102B4C00A82DA92DC02D34080319AD2DAE2DC02DE7
:102B5C003408B3005908903E840033088317800072
:102B6C000130B3003308D9075908903E8400800126
:102B7C00C02DC02D0A128A1190260A168A1108003F
:102B8C0083120313B4003E3059020318CE2DCF2DFF
:102B9C00E72D34080319D32DD42DE72D34088038B4
:102BAC00B3005908903E840033088317800001302D
:102BBC00B3003308D9075908903E84008001E72DF3
:102BCC00E72D0A128A1190260A168A110800831220
:102BDC00031359080319F32DF42D102E0330590249
:102BEC00031CF92DFA2DFD2D0130D902FD2D5908AC
:102BFC00903E840083170008DF390A168A11C62715
:102C0C000A168A11831203135908903E8400831705
:102C1C008001102E0A128A1190260A168A110800B9
:102C2C0083120313A1008030A0002008A300A2018E
:102C3C00362E0511210823050319252E262E282EA4
:102C4C000514292E0510851C2C2E2D2E322E230812
:102C5C00A0002008A204322E05150310A30C362E5A
:102C6C002308031D3A2E3B2E1F2E051122083E2E43
:102C7C00080083120313A401A501442E201C472E27
:102C8C00482E4E2E2208A4070318A50A2308A507D0
:102C9C0001300310A20DA30DFF3E031D4F2E01307A
:102CAC000310A10CA00CFF3E031D562E200821047E
:102CBC00031D612E622E442E632E2508A1002408CC
:102CCC00A000682E0800FD30831203138F008F3094
:102CDC008E005D085C045B045A040319762E772E73
:102CEC00942E0130F0000030F1000030F200003082
:102CFC00F3007008DA027108031C710F862E872E00
:102D0C00DB027208031C720F8C2E8D2EDC027308F2
:102D1C00031C730F922E932EDD02962E1010962EFE
:102D2C00080083120313AB002608840083130008E9
:102D3C00A000840A0008A1000A30A2000030A30001
:102D4C000A168A113F260A168A11831203132B08BE
:102D5C002007A70021080318210AA8002708D03E45
:102D6C00A90028080318013EFF3EAA00260884008B
:102D7C00290883138000840A2A088000080083161F
:102D8C000317890183160313061286120610861088
:102D9C00061186118312031386160530A00000302D
:102DAC00A1000A168A1113250A168A1128300A1254
:102DBC008A110E240A168A110C300A128A110E245A
:102DCC000A168A1101300A128A110E240A168A1167
:102DDC0002300A128A110E240A168A1108003D309C
:102DEC008312031358020318FC2EFD2E1F2F5908B3
:102DFC00FF3EA000FF3003180030A1002108803AEC
:102E0C00803C031D0B2F2008580203180E2F0F2F88
:102E1C00162F013083120313A0002008D807242F8B
:102E2C00831203135908FF3EA0002008D800242F5A
:102E3C00242F3D30A0002008D800242F0800831236
:102E4C000313A10006162108A00004300310A00CE7
:102E5C00FF3E031D2C2F06082006F03920068600A5
:102E6C008612413083120313A000A00B3B2F3E2F80
:102E7C0083120313861606160F302105A0000608D0
:102E8C002006F03920068600861241308312031387
:102E9C00A000A00B4F2F522F83120313861608008D
:102EAC0083120313A3002308A2002208E0002008C9
:102EBC00A2002208DF002108A2002208DE008511F2
:102ECC0083160317881183160313851183120313BA
:102EDC0005118316031708118316031305118312AA
:102EEC00031305108316031708108316031305101C
:102EFC008312031305088316031788108316031314
:102F0C00851483120313051105108515080083120F
:102F1C000313A200AF2F7A080139C52FC52FC52F77
:102F2C007A0C0139C52FC52FC52F7A0CA000200CA7
:102F3C000139C52FC52FC52F7A0CA000A00C200C71
:102F4C000139C52FC52FC52F0030C52FC52FC52F53
:102F5C00C52F2208A000A1012108003A0319B72FA0
:102F6C00AA2F2008413A0319912F033A0319962FDF
:102F7C00013A03199B2F073A0319A22FAA2F080015
:102F8C0083120313A200E72F7A1CCD2FCF2F7A14B4
:102F9C00D02F7A10FF2FFA1CD42FD62FFA14D72F3C
:102FAC00FA10FF2F7A1DDB2FDD2F7A15DE2F7A1109
:102FBC00FF2FFA1DE22FE42FFA15E52FFA11FF2F40
:102FCC00FF2F831203132208A000A1012108003A4D
:102FDC000319F12FFF2F2008413A0319CA2F033A86
:102FEC000319D12F013A0319D82F073A0319DF2FF0
:042FFC00FF2F08009B
:04400E00C2E0FFFF0E
:00000001FF
